{"abi":[{"type":"function","name":"account","inputs":[],"outputs":[{"name":"balance","type":"uint256","internalType":"uint256"},{"name":"isActive","type":"bool","internalType":"bool"}],"stateMutability":"view"},{"type":"function","name":"activate","inputs":[],"outputs":[],"stateMutability":"nonpayable"},{"type":"function","name":"deposit","inputs":[{"name":"amount","type":"uint256","internalType":"uint256"}],"outputs":[],"stateMutability":"nonpayable"},{"type":"function","name":"getBalance","inputs":[],"outputs":[{"name":"","type":"uint256","internalType":"uint256"}],"stateMutability":"view"},{"type":"function","name":"withdraw","inputs":[{"name":"amount","type":"uint256","internalType":"uint256"}],"outputs":[],"stateMutability":"nonpayable"},{"type":"event","name":"Deposited","inputs":[{"name":"amount","type":"uint256","indexed":false,"internalType":"uint256"}],"anonymous":false},{"type":"event","name":"Withdrawn","inputs":[{"name":"amount","type":"uint256","indexed":false,"internalType":"uint256"}],"anonymous":false},{"type":"error","name":"AccountNotActive","inputs":[]},{"type":"error","name":"InsufficientFunds","inputs":[]}],"bytecode":{"object":"0x6080604052348015600e575f5ffd5b506104218061001c5f395ff3fe608060405234801561000f575f5ffd5b5060043610610055575f3560e01c80630f15f4c01461005957806312065fe0146100635780632e1a7d4d146100815780635dab24201461009d578063b6b55f25146100bc575b5f5ffd5b6100616100d8565b005b61006b6100f6565b60405161007891906102a5565b60405180910390f35b61009b600480360381019061009691906102ec565b610100565b005b6100a56101d7565b6040516100b3929190610331565b60405180910390f35b6100d660048036038101906100d191906102ec565b6101f3565b005b60015f6001015f6101000a81548160ff021916908315150217905550565b5f5f5f0154905090565b5f6001015f9054906101000a900460ff16610147576040517f4d57146400000000000000000000000000000000000000000000000000000000815260040160405180910390fd5b5f5f0154811115610184576040517f356680b700000000000000000000000000000000000000000000000000000000815260040160405180910390fd5b805f5f015f8282546101969190610385565b925050819055507f430648de173157e069201c943adb2d4e340e7cf5b27b1b09c9cb852f03d63b56816040516101cc91906102a5565b60405180910390a150565b5f805f015490806001015f9054906101000a900460ff16905082565b5f6001015f9054906101000a900460ff1661023a576040517f4d57146400000000000000000000000000000000000000000000000000000000815260040160405180910390fd5b805f5f015f82825461024c91906103b8565b925050819055507f2a89b2e3d580398d6dc2db5e0f336b52602bbaa51afa9bb5cdf59239cf0d2bea8160405161028291906102a5565b60405180910390a150565b5f819050919050565b61029f8161028d565b82525050565b5f6020820190506102b85f830184610296565b92915050565b5f5ffd5b6102cb8161028d565b81146102d5575f5ffd5b50565b5f813590506102e6816102c2565b92915050565b5f60208284031215610301576103006102be565b5b5f61030e848285016102d8565b91505092915050565b5f8115159050919050565b61032b81610317565b82525050565b5f6040820190506103445f830185610296565b6103516020830184610322565b9392505050565b7f4e487b71000000000000000000000000000000000000000000000000000000005f52601160045260245ffd5b5f61038f8261028d565b915061039a8361028d565b92508282039050818111156103b2576103b1610358565b5b92915050565b5f6103c28261028d565b91506103cd8361028d565b92508282019050808211156103e5576103e4610358565b5b9291505056fea26469706673582212204318a2e944feeea9083cdda61a1174a3024662f675c72662a71bae542eae30a864736f6c63430008230033","linkReferences":{}},"methodIdentifiers":{"account()":"5dab2420","activate()":"0f15f4c0","deposit(uint256)":"b6b55f25","getBalance()":"12065fe0","withdraw(uint256)":"2e1a7d4d"},"id":21}